:020000040000FA
:08000000803102288731FB2F3B
:100EFC0016302100990008002900910192018E0101
:100F0C008F01013090000800603021009B00803080
:100F1C009C009A019D0108008731BC2787318731DD
:100F2C008A27873187317E2787318731822787311E
:100F3C000800873192278731031022000D1C0314FF
:100F4C000318A92FAC2F22000D14AE2F22000D1068
:100F5C000230F3004530F200AA30890BB32FF20BAC
:100F6C00B32FF30BB32FA22F803102282200900154
:100F7C008F018C018D018E01073021009000FF3014
:100F8C008C00FC308D00FF308E00FF308F00FF3066
:100F9C0023008F00FC308E003C308D000730900019
:100FAC003F308C0024008F0190018D018C018E014B
:100FBC0021009717250090018C018D018E018F0166
:100FCC00FF3026008C00FF308D00FF308E00FF308C
:100FDC008F00073090003F3027008C00F0308D00E0
:100FEC00FF308E00FF308F000800F001F10120006F
:040FFC0087319F2F6B
:020000040001F9
:04000E00E43FFF3E8E
:00000001FF
