:020000040000FA
:08000000803102288731D72F5F
:100306001630210099000800033400340534003407
:100316002000110E890C0139080071082000C40064
:100326007008C300080071082000C8007008C700E4
:10033600080071082000C6007008C5000800710892
:100346002000C2007008C100080022008E170F129C
:100356008F160F13080022008E130F128F120F1321
:10036600080022008E130F168F160F130800603038
:1003760021009B0080309C009A019D010800F0003E
:100386002000111EC729C829C329700823009A0016
:10039600080081318B218131003A0319D329D429F0
:1003A600CC298131E42181310800640080010131CA
:1003B6000130FE020030FF3B7F087E04031DD92971
:1003C60000342000911EE829E929E429B60123001A
:1003D6009D1CEE29EF29F1291D121D16190808008A
:1003E60082313B2281318131BA21813181318321B0
:1003F6008131823103228131823119228131080013
:1004060021001708C0391138970083302000970063
:100416008330F2007208C9000B118B160030F00011
:100426000030F1008131A22182310800083023001A
:100436009F0090309D0024309E0008309B009C0158
:100446000030F0000030F100813196218231003019
:10045600F0000030F10081319C2182310030F00043
:100466000030F1008131902182312000B601080070
:10047600220090018F018C018D018E010730210031
:100486009000FF308C00DF308D0001308E00803010
:100496008F00803023008F008E0105308D000730DD
:1004A60090003F308C0024008F0190018D018C015B
:1004B6008E0121009717250090018C018D018E0178
:1004C6008F01FF3026008C00FF308D00FF308E003C
:1004D600FF308F00073090003F3027008C00F0304F
:1004E6008D00FF308E00FF308F000B303C00BD00CA
:1004F60024303D00A10008007208803AF3008030E5
:100506007302031D882A2330710203188B2A8C2A52
:10051600962A7108233E8131C221823141308131D0
:10052600C2218231CC2A7208803AF30080307302ED
:10053600031D9F2A7E3071020318A22AA32AAC2A21
:1005460071088131C221823142308131C22182312A
:10055600CC2A7208803AF30080307302031DB52A54
:10056600D93071020318B82AB92AC32A7108A53EE0
:100576008131C221823143308131C2218231CC2A7C
:1005860071084A3E8131C221823144308131C22113
:1005960082310800F601F31FD12AD22AD92AF2099C
:1005A600F309F20A0319F30AF601F60AF11FDC2A27
:1005B600DD2AE22AF009F109F00A0319F10A7008A6
:1005C60071040319E72AE82A112BF501F50AF42A22
:1005D6000130F035F10D890BEC2A0130F400740876
:1005E600F507F11FF72AF82AEB2A71087302031D93
:1005F600FE2A70087202031C012B022B062B7008C0
:10060600F2027108F33B0130F136F00C890B072B2F
:100616000130F502031D102B112BF82A7608031959
:10062600152B162B1B2BF209F309F20A0319F30AF1
:100636007308F1007208F00008004D308131C221C4
:1006460083313A308131C221833120002D08F200F6
:100656002C08F10082317F2283312C308131C22176
:10066600833141308131C22183313A308131C22117
:10067600833120002B08F2002A08F10082317F2204
:1006860083310D308131C22183310A308131C2215B
:10069600833120002B08803AF4002D08803A74023A
:1006A600031D572B2C082A0203185A2B5B2B6D2B84
:1006B60020002D08803AF40080307402031D652B5B
:1006C6004C302C02031C682B692B6D2B8131A82121
:1006D60083317B2B423020003102031C732B742B99
:1006E600782B8131B42183317B2B8131AE2183314B
:1006F6000800F601F11F802B812B882BF009F109E8
:10070600F00A0319F10AF601F60AF31F8B2B8C2B5C
:10071600952BF209F309F20A0319F30A0130F400E2
:100726007408F606F701F8017008710403199C2B8A
:100736009D2BCC2BF501F50AA92B0130F035F10DD7
:10074600890BA12B0130F4007408F507F11FAC2BBF
:10075600AD2BA02B0130F735F80D890BAE2B7108A8
:100766007302031DB82B70087202031CBB2BBC2B33
:10077600C12B7008F2027108F33B77140130F13691
:10078600F00C890BC22B0130F502031DCB2BCC2BB1
:10079600AD2B76080319D02BD12BD62BF709F809E8
:1007A600F70A0319F80A7808F1007708F00008003C
:1007B60020003208F400F5017408F1007508F20013
:1007C60082317F2283312C308131C2218331200056
:1007D6003008F400F5017408F1007508F200823162
:1007E6007F2283312C308131C221833120003108B0
:1007F600F400F5017408F1007508F20082317F22D9
:1008060083312C308131C221833120002008F4004D
:10081600F5017408F1007508F20082317F228331F8
:100826002C308131C221833120002108F400F501EA
:100836007408F1007508F20082317F2283312C3072
:100846008131C221833120002208F400F5017408A9
:10085600F1007508F20082317F2283312C3081311C
:10086600C221833120002308F400F5017408F10049
:100876007508F20082317F2283312C308131C2210A
:10088600833120002408F400F5017408F10075088E
:10089600F20082317F2283312C308131C2218331B3
:1008A60020002508F400F5017408F1007508F2002F
:1008B60082317F2283312C308131C2218331200065
:1008C6002608F400F5017408F1007508F20082317B
:1008D6007F2283312C308131C221833120002708C9
:1008E600F400F5017408F1007508F20082317F22E8
:1008F60083312C308131C22183310D308131C221C7
:1009060083310A308131C22183310800031022006D
:100916000E1F03140318902C932C22000E17952CEF
:1009260022000E134130F000EE30890B982CF00BAC
:10093600982C0032031022008E1E03140318A42CD8
:10094600A72C22008E16A92C22008E124130F00010
:10095600EE30890BAC2CF00BAC2C003203102200CD
:100966000E1E03140318B82CBB2C22000E16BD2C29
:1009760022000E124130F000EE30890BC02CF00B35
:10098600C02C0032031022000E1F03140318CC2CB7
:10099600CF2C22000E17D12C22000E134130F0006E
:1009A600EE30890BD42CF00BD42C0032031022002D
:1009B6008F1D03140318E02CE32C22008F15E52C61
:1009C60022008F114130F000EE30890BE82CF00B3D
:1009D600E82C0032031022008E1E03140318F42C98
:1009E600F72C22008E16F92C22008E124130F000D0
:1009F600EE30890BFC2CF00BFC2C0032031022008D
:100A06000F1D03140318082D0B2D22000F150D2D95
:100A160022000F114130F000EE30890B102DF00B43
:100A2600102D0032031022000E1E031403181C2D75
:100A36001F2D22000E16212D22000E124130F0002D
:100A4600EE30890B242DF00B242D003203102200EA
:100A56008F1C03140318302D332D22008F14352DCF
:100A660022008F104130F000EE30890B382DF00B4C
:100A7600382D0032031022008F1D03140318442D55
:100A8600472D22008F15492D22008F114130F0008D
:100A9600EE30890B4C2DF00B4C2D0032031022004A
:100AA6000F1C03140318582D5B2D22000F145D2D07
:100AB60022000F104130F000EE30890B602DF00B54
:100AC600602D0032031022000F1D031403186C2D35
:100AD6006F2D22000F15712D22000F114130F000ED
:100AE600EE30890B742DF00B742D003203102200AA
:100AF6008E1D03140318802D832D22008E15852D3F
:100B060022008E114130F000EE30890B882DF00B5B
:100B1600882D0032031022008F1C03140318942D15
:100B2600972D22008F14992D22008F104130F0004E
:100B3600EE30890B9C2DF00B9C2D00320310220009
:100B46000E1D03140318A82DAB2D22000E15AD2D76
:100B560022000E114130F000EE30890BB02DF00B63
:100B6600B02D0032031022000F1C03140318BC2DF5
:100B7600BF2D22000F14C12D22000F108230F0006D
:100B8600DE30890BC42DF00BC42D031022008E1D00
:100B960003140318CF2DD22D22008E15D42D22003A
:100BA6008E118230F000DE30890BD72DF00BD72D59
:100BB600031022000E1D03140318E22DE52D22005A
:100BC6000E15E72D22000E1108008131F321853123
:100BD6008B170B1784318924853153308131C2211B
:100BE600853154308131C221853141308131C22174
:100BF600853152308131C221853154308131C22153
:100C0600853149308131C22185314E308131C22151
:100C1600853147308131C22185310D308131C22184
:100C260085310A308131C22185318131CC2185312E
:100C3600AA3A031D1F2E202E182E8131CC21853174
:100C4600AA3A031D272E282E182E8131CC21853154
:100C5600F900FA0179082000BD007A08BE003E08B6
:100C6600803AF90080307902031D3B2EAA303D02FE
:100C7600031C3E2E3F2E412E182E182E2000B501A5
:100C8600B701B8016D2E8131CC218531F900F030E4
:100C9600FA002630FB00200037087A07FC003808E7
:100CA6007B3DFD007C0886007D0887007908810071
:100CB600F030F9002630FA00370879078600380840
:100CC6007A3D87000108FB007B08B5070130B707AE
:100CD6000030B83D3808803AF9003E08803A79027B
:100CE600031D772E3D083702031C7A2E7B2E462ED7
:100CF6008131CC218531F90079082000B400B5098D
:100D060034083506031D882E892E182EC830F900A2
:100D16007908B200B101B001B901BA012000390861
:100D2600203E8600870181010130B9070030BA3DB7
:100D36003A08803AF90080307902031DA42E083063
:100D46003902031CA72EA82E912E2000BF01C00138
:100D56004A2F0130BF070030C03DF030F900263081
:100D6600FA003F087907860040087A3D87000108A7
:100D7600FB007B08B200452F0130BF070030C03DA5
:100D8600F030F9002630FA003F087907860040085F
:100D96007A3D87000108FB007B08B100452F013032
:100DA600BF070030C03DF030F9002630FA003F089A
:100DB6007907860040087A3D87000108FB007B081A
:100DC600B000452F0330BF070030C03D452F01302E
:100DD600BF070030C03DBB01BC0101302000BF078A
:100DE6000030C03D0130BF070030C03D0130BF07B5
:100DF6000030C03DF030F9002630FA003F08790790
:100E0600860040087A3D87000108FB003B08203E2B
:100E1600860087017B0881000130BB070030BC3D9E
:100E26003C08803AF90080307902031D1C2F0830F7
:100E36003B02031C1F2F202FF02E452FF030F90008
:100E46002630FA0020003F087907860040087A3DE0
:100E560087000108FB00FC017C08003A0319342FC7
:100E6600452F7B08023A0319AC2E063A0319BF2E0A
:100E7600013A0319D22E853A0319E52E033A0319CE
:100E8600EA2E452F01302000BF070030C03D400844
:100E9600803AF9003E08803A7902031D542F3D0836
:100EA6003F02031C572F582F212FC830200032062F
:100EB600031D5E2F5F2F672F04303D063E04031D82
:100EC600652F662F672F182EC8303206031D6C2F2C
:100ED6006D2F7A2F46308131C22185310D30813117
:100EE600C22185310A308131C2218531182E8331E4
:100EF600DB23853101302000AE070030AF3D3008DE
:100F0600F900FA017908AC077A08AD3D3108F90015
:100F1600FA017908AA077A08AB3D0530F0000030DF
:100F2600F1002F08F3002E08F2008231CD22853120
:100F360071082000AF007008AE002E082F04031DB4
:100F4600A52FA62FCA2F0530F0000030F1002D087E
:100F5600F3002C08F20083317C23853171082000D0
:100F6600AD007008AC000530F0000030F1002B0831
:100F7600F3002A08F20083317C23853171082000B2
:100F8600AB007008AA00833120238531182E033068
:100F96002E062F04031DD02FD12F402E8131AE21D6
:100FA6008531182E80310228813187218731CA0088
:100FB600813188218731CB00813189218731CC006D
:100FC60081318A218731CD00F030840026308500BA
:100FD6000030FE000130FF008131D82187312030FA
:100FE6008400003085001730FE000030FF0081319C
:0A0FF600D821873120008531E82D55
:020000040001F9
:04000E00E439FF3E94
:00000001FF
