:020000040000FA
:08000000803102288731F12F45
:100C820016302100990008002000110E890C01394C
:100C9200080071082000EB007008EA0008007108E3
:100CA2002000EF007008EE00080071082000ED003F
:100CB2007008EC00080022000F108F100E118E1128
:100CC200080022000F108F140E158E110800640008
:100CD20080010131890B692E0034603021009B00B4
:100CE20080309C009A019D0108008631452686319C
:100CF200003A03197D2E7E2E762E86318F2686317E
:100D020008008631C026863186316E2686318631CC
:100D12004126863186319E26863108002000911EAA
:100D2200932E942E8F2EE90123009D1C992E9A2E2C
:100D32009C2E1D121D1619080800083023009F0062
:100D420090309D0024309E0008309B009C010030B2
:100D5200F0000030F1008631502686310030F0007C
:100D62000030F1008631562686310030F000003026
:100D7200F10086314A2686312000E901080022006E
:100D820090018F018C018D018E01073021009000AE
:100D9200FF308C00FD308D00B3308E00FC308F00B0
:100DA200FF3023008F003C308E003D308D00073035
:100DB20090003F308C0024008F0190018D018C0146
:100DC2008E0121009717250090018C018D018E0163
:100DD2008F01FF3026008C00FF308D00FF308E0027
:100DE200FF308F00073090003F3027008C00F0303A
:100DF2008D00FF308E00FF308F0017303C00BD00A9
:100E020024303D00A60008008631822687318631D3
:100E120076268731AA3A031D0F2F102F082F86310D
:100E220076268731AA3A031D172F182F082F8631ED
:100E320076268731F200F3017208F4007308F50098
:100E42007508803AF20080307202031D2A2FAA3000
:100E52007402031C2D2F2E2F2F2FEF2FFD01F601D1
:100E6200F701492F863176268731F2007608203E37
:100E720086008701720881007608203E860087017D
:100E82000108F2007208FD070130F6070030F73D55
:100E92007708803AF2007508803A7202031D532FD8
:100EA20074087602031C562F572F332F863176266D
:100EB2008731F2007208FC00FD097C087D06031DE3
:100EC200632F642F082FC830F2007208FB00200045
:100ED200E701FA01F801F901C82F0130F8070030E3
:100EE200F93D7808203E860087010108F200720869
:100EF200FB002000E601E60AC42F0130F8070030AB
:100F0200F93D7808203E860087010108F200720848
:100F12002000E700C42F0130F8070030F93D7808BF
:100F2200203E860087010108F2007208FA00C42FF1
:100F32007808033EF8000030793DF900C42F7808A4
:100F4200193EF8000030793DF900C42F7808203EA0
:100F5200860087010108F200F3017308003A0319C1
:100F6200B32FC42F7208023A03196E2F063A0319DF
:100F72007E2F013A03198C2F853A0319992F033AD0
:100F82000319A02FC42F0130F8070030F93D79086A
:100F9200803AF2007508803A7202031DD22F74085B
:100FA2007802031CD52FD62FA72FC8307B06031D2E
:100FB200DB2FDC2FDD2F082F3D307A02031CE22FBE
:100FC200E32FE92F86316226873122008D14082F04
:100FD20086315C26873122008D10082F803102284D
:100FE200FA01FB01FC01FD01203084000030850084
:0E0FF2004A3086316826873120008731052F6E
:020000040001F9
:04000E00E43FFF3E8E
:00000001FF
