:020000040000FA
:08000000803102288731E42F52
:1005CC0016302100990008002000110E890C013909
:1005DC00080071082000BB007008BA000800710800
:1005EC002000BF007008BE00080071082000BD008C
:1005FC007008BC00080071082000B9007008B80031
:10060C00080022008E130F128F120F130800220005
:10061C008E170F128F120F17080022008E130F1651
:10062C008F160F130800603021009B0080309C0057
:10063C009A019D010800F0002000111E262B272B8B
:10064C00222B700823009A0008008231EA228331A1
:10065C00003A0319322B332B2B2B83314323833159
:10066C0008006400800101310130FE020030FF3BC4
:10067C007F087E04031D382B00342000911E472B6D
:10068C00482B432BAD0123009D1C4D2B4E2B502B87
:10069C001D121D161908080083319A2383318331EA
:1006AC00192383318231E6228331833162238331F2
:1006BC00833178238331080021001708C0391138A1
:1006CC0097008330200097008330F2007208C0003E
:1006DC000B118B160030F0000030F1008331012338
:1006EC0083310800083023009F0090309D00243097
:1006FC009E0008309B009C010030F0000030F1009F
:10070C008231F52283310030F0000030F10082316B
:10071C00FB2283310030F0000030F1008231EF22F7
:10072C0083312000AD010800220090018F018C0163
:10073C008D018E01073021009000FF308C00DF30DE
:10074C008D0001308E0080308F00803023008F00B0
:10075C008E0105308D00073090003F308C00240056
:10076C008F0190018D018C018E01210097172500BE
:10077C0090018C018D018E018F01FF3026008C00C1
:10078C00FF308D00FF308E00FF308F00073090005F
:10079C003F3027008C00F0308D00FF308E00FF3092
:1007AC008F000B303C00BD0024303D00A100080040
:1007BC007208803AF30080307302031DE72B23305C
:1007CC0071020318EA2BEB2BF52B7108233E8331B6
:1007DC002123833141308331212383312B2C720827
:1007EC00803AF30080307302031DFE2B7E307102C1
:1007FC000318012C022C0B2C71088331212383311B
:10080C0042308331212383312B2C7208803AF30040
:10081C0080307302031D142CD93071020318172C6D
:10082C00182C222C7108A53E8331212383314330AF
:10083C008331212383312B2C71084A3E83312123B0
:10084C008331443083312123833108007D08F40047
:10085C00F5017408F1007508F2008331DE23843150
:10086C002C308331212384317B08F400F50174088A
:10087C00F1007508F2008331DE2384312C30833192
:10088C00212384317C08F400F5017408F10075080B
:10089C00F2008331DE2384312C30833121238431E7
:1008AC0020002008F400F5017408F1007508F2002E
:1008BC008331DE2384312C30833121238431200099
:1008CC002108F400F5017408F1007508F200833179
:1008DC00DE2384312C308331212384312000220803
:1008EC00F400F5017408F1007508F2008331DE2381
:1008FC0084312C3083312123843120002308F400EF
:10090C00F5017408F1007508F2008331DE2384319F
:10091C002C3083312123843120002408F400F5018C
:10092C007408F1007508F2008331DE2384312C3019
:10093C0083312123843120002508F400F50174084B
:10094C00F1007508F2008331DE2384312C308331C1
:10095C002123843120002608F400F5017408F100ED
:10096C007508F2008331DE2384312C30833121234E
:10097C00843120002708F400F5017408F100750893
:10098C00F2008331DE2384312C30833121238431F6
:10099C000D308331212384310A308331212384317A
:1009AC000800031022000E1F03140318DE2CE12C88
:1009BC0022000E17E32C22000E134130F000EE3013
:1009CC00890BE62CF00BE62C0032031022008E1E55
:1009DC0003140318F22CF52C22008E16F72C22008F
:1009EC008E124130F000EE30890BFA2CF00BFA2C01
:1009FC000032031022000E1E03140318062D092DBD
:100A0C0022000E160B2D22000E124130F000EE309B
:100A1C00890B0E2DF00B0E2D0032031022000E1F31
:100A2C00031403181A2D1D2D22000E171F2D220042
:100A3C000E134130F000EE30890B222DF00B222DDD
:100A4C000032031022008F1D031403182E2D312D9C
:100A5C0022008F15332D22008F114130F000EE3023
:100A6C00890B362DF00B362D0032031022008E1E12
:100A7C0003140318422D452D22008E16472D2200FB
:100A8C008E124130F000EE30890B4A2DF00B4A2DBE
:100A9C000032031022000F1D03140318562D592D7C
:100AAC0022000F155B2D22000F114130F000EE30AB
:100ABC00890B5E2DF00B5E2D0032031022000E1EF2
:100ACC00031403186A2D6D2D22000E166F2D2200B3
:100ADC000E124130F000EE30890B722DF00B722D9E
:100AEC000032031022008F1C031403187E2D812D5D
:100AFC0022008F14832D22008F104130F000EE3035
:100B0C00890B862DF00B862D0032031022008F1DD1
:100B1C0003140318922D952D22008F15972D22006A
:100B2C008F114130F000EE30890B9A2DF00B9A2D7D
:100B3C000032031022000F1C03140318A62DA92D3C
:100B4C0022000F14AB2D22000F104130F000EE30BC
:100B5C00890BAE2DF00BAE2D0032031022000F1DB1
:100B6C0003140318BA2DBD2D22000F15BF2D220022
:100B7C000F114130F000EE30890BC22DF00BC22D5D
:100B8C000032031022008E1D03140318CE2DD12D1C
:100B9C0022008E15D32D22008E114130F000EE3044
:100BAC00890BD62DF00BD62D0032031022008F1C92
:100BBC0003140318E22DE52D22008F14E72D2200DB
:100BCC008F104130F000EE30890BEA2DF00BEA2D3E
:100BDC000032031022000E1D03140318F62DF92DFC
:100BEC0022000E15FB2D22000E114130F000EE30CC
:100BFC00890BFE2DF00BFE2D0032031022000F1C72
:100C0C00031403180A2E0D2E22000F140F2E22008F
:100C1C000F108230F000DE30890B122EF00B122EEA
:100C2C00031022008E1D031403181D2E202E2200EB
:100C3C008E15222E22008E118230F000DE30890BB0
:100C4C00252EF00B252E031022000E1D0314031865
:100C5C00302E332E22000E15352E22000E110800D8
:100C6C008331522386318B170B178431D72486316D
:100C7C005330833121238631543083312123863103
:100C8C004130833121238631523083312123863107
:100C9C0054308331212386314930833121238631ED
:100CAC004E308331212386314730833121238631E5
:100CBC000D308331212386310A3083312123863153
:100CCC0083312B238631AA3A031D6D2E6E2E662E90
:100CDC0083312B238631AA3A031D752E762E662E70
:100CEC0083312B238631F600F70176082000B400FF
:100CFC007708B5003508803AF60080307602031D7F
:100D0C00892EAA303402031C8C2E8D2E8E2E662E2C
:100D1C002000AC01AE01AF01BA2E83312B238631FA
:100D2C00F600F030F7002630F80020002E08770788
:100D3C00F9002F08783DFA00790886007A088700B8
:100D4C0076088100F030F6002630F7002E08760782
:100D5C0086002F08773D87000108F8007808AC075B
:100D6C000130AE070030AF3D2F08803AF600350851
:100D7C00803A7602031DC42E34082E02031CC72EA3
:100D8C00C82E932E83312B238631F6007608200053
:100D9C00AB00AC092B082C06031DD52ED62E662EC7
:100DAC00C830F6007608FD00FC01FB01B001B10172
:100DBC0020003008203E8600870181010130B007F9
:100DCC000030B13D3108803AF60080307602031DC8
:100DDC00F12E08303002031CF42EF52EDE2E2000EE
:100DEC00B601B701972F0130B6070030B73DF03090
:100DFC00F6002630F7003608760786003708773D70
:100E0C0087000108F8007808FD00922F0130B60722
:100E1C000030B73DF030F6002630F7003608760784
:100E2C0086003708773D87000108F8007808FC0039
:100E3C00922F0130B6070030B73DF030F600263067
:100E4C00F7003608760786003708773D87000108DB
:100E5C00F8007808FB00922F0330B6070030B73D3E
:100E6C00922F0130B6070030B73DB201B30101300B
:100E7C002000B6070030B73D0130B6070030B73D53
:100E8C000130B6070030B73DF030F6002630F700E1
:100E9C003608760786003708773D87000108F8008A
:100EAC003208203E86008701780881000130B207A5
:100EBC000030B33D3308803AF60080307602031DD3
:100ECC00692F08303202031C6C2F6D2F3D2F922F8F
:100EDC00F030F6002630F700200036087607860042
:100EEC003708773D87000108F800F9017908003AC6
:100EFC000319812F922F7808023A0319F92E063A1A
:100F0C0003190C2F013A03191F2F853A0319322F9D
:100F1C00033A0319372F922F01302000B607003007
:100F2C00B73D3708803AF6003508803A7602031D43
:100F3C00A12F34083602031CA42FA52F6E2FC83006
:100F4C007D06031DAA2FAB2FB42F043020003406CE
:100F5C003504031DB22FB32FB42F662EC8307D0677
:100F6C00031DB92FBA2FC72F463083312123863169
:100F7C000D308331212386310A3083312123863190
:100F8C00662E84312C24863156307B02031CCF2FE5
:100F9C00D02FD42F83310D238631662E42307B0225
:100FAC00031CD92FDA2FDE2F833113238631662EC3
:100FBC00833107238631662E80310228F03084007D
:100FCC00263085000030FE000130FF0083313723CE
:100FDC008731FB01FC01FD012030840000308500CD
:100FEC000E30FE000030FF008331372387312000A4
:040FFC008631362ED6
:020000040001F9
:04000E00E439FF3E94
:00000001FF
